:100000000AC011C010C00FC00EC00DC00CC00BC084
:100010000AC009C008C011271FBFCFE5D0E0DEBF6E
:10002000CDBF26D0ABC0ECCF42E04DBD19BD18BD51
:1000300048E05DE357BD46BD4EB54C704EBD15BDA5
:1000400014BD089542E24EBD4BE14DBD15BD14BD3A
:1000500041E350E053BD42BD49E150E057BD46BDCC
:1000600008950AB501FFFDCF4AB542604ABD089523
:10007000DBDF42E041B9CCEDD5E046B557B5475F8F
:10008000524C57BD46BDEDDFC150D10BB1F7DADFA1
:1000900020E030E0C0E0D0E0E4DF2F5F3F4F233EC0
:1000A00044E03407C4F4822F932F880F991F880FE0
:1000B000991F820F931F482F592F440F551F440F2C
:1000C000551F840F951F880F991F62EE74E02DD085
:1000D00075BD64BD24C0243C49E03407E4F484ECDD
:1000E00099E0821B930B482F592F440F551F440F43
:1000F000551F840F951F482F592F440F551F440F2C
:10010000551F840F951F880F991F62EE74E00DD064
:1001100075BD64BD04C0CF5FDF4F20E030E0C6395D
:10012000D1070CF4B9CF80DFA6CF97FB072F16F4C9
:10013000009506D077FD08D00BD007FD05D03EF422
:10014000909581959F4F0895709561957F4F089583
:10015000AA1BBB1B51E107C0AA1FBB1FA617B707ED
:1001600010F0A61BB70B881F991F5A95A9F7809509
:100170009095682F792F8A2F9B2F0895F894FFCFA1
:00000001FF
