:100000000AC011C010C00FC00EC00DC00CC00BC084
:100010000AC009C008C011271FBFCFE5D0E0DEBF6E
:10002000CDBF26D0B6C0ECCF43E04DBD19BD18BD45
:1000300048E05DE357BD46BD4EB54C704EBD15BDA5
:1000400014BD089542E24EBD4AE14DBD15BD14BD3B
:1000500041E350E053BD42BD49E150E057BD46BDCC
:1000600008950AB501FFFDCF4AB542604ABD089523
:10007000DBDF42E041B9C5E9D0E02FE037E22F5F96
:100080003F4F46B557B5475F524C57BD46BDE9DFB8
:10009000223E44E034079CF3D5DFC639D1070CF08B
:1000A00049C020E030E0DDDF2F5F3F4F253C49E0D5
:1000B0003407C4F4822F932F880F991F880F991F3C
:1000C000820F931F482F592F440F551F440F551F60
:1000D000840F951F880F991F64EC79E031D075BDAE
:1000E00064BD24C0283843E13407E4F488E893E190
:1000F000821B930B482F592F440F551F440F551F38
:10010000840F951F482F592F440F551F440F551F1B
:10011000840F951F880F991F64EC79E011D075BD8D
:1001200064BD04C0CF5FDF4F20E030E0C639D107A7
:100130000CF4B9CF79DF20E030E0C0E0D0E09FCF11
:1001400097FB072F16F4009506D077FD08D00BD04B
:1001500007FD05D03EF4909581959F4F08957095C9
:1001600061957F4F0895AA1BBB1B51E107C0AA1FD1
:10017000BB1FA617B70710F0A61BB70B881F991F48
:100180005A95A9F780959095682F792F8A2F9B2FE4
:060190000895F894FFCF72
:00000001FF