:100000000AC011C010C00FC00EC00DC00CC00BC084
:100010000AC009C008C011271FBFCFE5D0E0DEBF6E
:10002000CDBF55D077C0ECCF42E24EBD4AE14DBDC9
:1000300015BD14BD4CE750E053BD42BD4CE350E04C
:1000400057BD46BD42E041B908950AB501FFFDCF55
:100050004AB542604ABD0895CF93DF934CE750E024
:1000600055BD44BDC5E8D0E0F0DFC150D10BE1F78C
:1000700015BD14BDC3E4D0E0E8DFC150D10BE1F7FA
:10008000DF91CF910895CF93DF934CE750E055BDBA
:1000900044BDC0E9D1E0D9DFC150D10BE1F715BDB6
:1000A00014BDC3E4D0E0D1DFC150D10BE1F7DF9143
:1000B000CF910895CF93DF9315BD14BDC3EDD1E06B
:1000C000C4DFC150D10BE1F7DF91CF910895ACDFD0
:1000D000C3DFC2DFEFDFC0DFD6DFBEDFBDDFEADFB9
:1000E000D2DFD1DFD0DFE6DFB7DFB6DFB5DFCBDFD2
:1000F000E1DFB2DFDFDFC7DFAFDFC5DFC4DFDADFBD
:10010000C2DFC1DFC0DFD6DFA7DFA6DFBCDFD2DF03
:08011000D1DFDECFF894FFCF30
:00000001FF
