:100000000AC019C018C017C016C015C014C013C04C
:1000100012C011C010C011271FBFCFE5D0E0DEBF56
:10002000CDBF20E0A0E4B0E001C01D93A234B20730
:10003000E1F75AD06AC0E4CF42E24EBD4AE14DBD7D
:1000400015BD14BD4CE750E053BD42BD4CE350E03C
:1000500057BD46BD42E041B91BBB43E84DBB0895C7
:100060000AB501FFFDCF4AB542604ABD0895CF935E
:10007000DF93C82FD92F11A910A91817190754F405
:10008000EFDF40A151A14F5F5F4F51A940A94C172D
:100090005D07B4F3DF91CF91089518171907FCF4A9
:1000A00040E050E060E070E0A1E0B0E0EE9AEE9950
:1000B000FECFC89B0AC0EA2FFB2F042F02C0EE0F11
:1000C000FF1F0A95E2F76E2B7F2BE6E0EA95F1F72A
:1000D00000C04F5F5F4F8417950741F702C060E093
:1000E00070E0862F972F0895A7DF81E090E0D5DF9D
:1000F00080FF05C04DE750E055BD44BD02C015BDB1
:0E01000014BD88EE93E0B3DFF0CFF894FFCF8C
:00000001FF
