:100000000AC011C010C00FC00EC00DC00CC00BC084
:100010000AC009C008C011271FBFCFE5D0E0DEBF6E
:10002000CDBF78D082C0ECCF0AB501FFFDCF4AB575
:1000300042604ABD0895CF93DF934CE750E055BD31
:1000400044BDC5E8D0E0F0DFC150D10BE1F715BDEC
:1000500014BDC3E4D0E0E8DFC150D10BE1F7DF917C
:10006000CF910895CF93DF934CE750E055BD44BD49
:10007000C0E9D1E0D9DFC150D10BE1F715BD14BD06
:10008000C3E4D0E0D1DFC150D10BE1F7DF91CF91D4
:100090000895CF93DF9315BD14BDC3EDD1E0C4DF48
:1000A000C150D10BE1F7DF91CF910895C4DFF1DFAB
:1000B0000895C1DFC0DFEDDF0895BDDFD3DFBBDF13
:1000C000BADFE7DF0895CEDFCDDFCCDFE2DF0895D2
:1000D000B2DFB1DFC7DFDDDF0895ADDFACDFABDF5F
:1000E000C1DFD7DF0895BEDFA6DFBCDFBBDFD1DF16
:1000F000089542E24EBD4AE14DBD15BD14BD4CE729
:1001000050E053BD42BD4CE350E057BD46BD42E018
:1001100041B90895EEDFCDDFD0DFD5DFDEDFC6DF0A
:0E012000E2DFD1DFD5DFB5DFF6CFF894FFCFF9
:00000001FF
